:100000000C9462000C948A000C948A000C948A0070
:100010000C948A000C948A000C948A000C948A0038
:100020000C948A000C948A000C948A000C948A0028
:100030000C948A000C948A000C948A000C948A0018
:100040000C9499010C948A000C9409020C94E3011D
:100050000C948A000C948A000C948A000C948A00F8
:100060000C948A000C948A000000000025002800EF
:100070002B0000000000240027002A0000000000E0
:1000800023002600290004040404040404040202DA
:100090000202020203030303030301020408102007
:1000A0004080010204081020010204081020000012
:1000B0000008000201000003040700000000000027
:1000C0000000490311241FBECFEFD8E0DEBFCDBF33
:1000D00011E0A0E0B1E0ECEFF6E002C005900D9277
:1000E000A232B107D9F721E0A2E2B1E001C01D922E
:1000F000A93CB207E1F710E0C2E6D0E004C02197C6
:10010000FE010E947603C136D107C9F70E943B0267
:100110000C947C030C940000AF92BF92CF92DF92BC
:10012000EF92FF920F931F93CF93DF936C017B01AC
:100130008B01040F151FEB015E01AE18BF08C0173D
:10014000D10759F06991D601ED91FC910190F081B0
:10015000E02DC6010995892B79F7C501DF91CF9173
:100160001F910F91FF90EF90DF90CF90BF90AF90D5
:100170000895FC01538D448D252F30E0842F90E0AD
:10018000821B930B541710F0CF9608950197089592
:10019000FC01918D828D981761F0A28DAE0FBF2F5B
:1001A000B11D5D968C91928D9F5F9F73928F90E0B1
:1001B00008958FEF9FEF0895FC01918D828D981720
:1001C00031F0828DE80FF11D858D90E008958FEF5D
:1001D0009FEF0895FC01918D228D892F90E0805C26
:1001E0009F4F821B91098F739927089582E291E0B6
:1001F0000E94EA0021E0892B09F420E0822F089573
:1002000080E090E0892B29F00E94F60081110C9487
:1002100000000895FC01A48DA80FB92FB11DA35AA9
:10022000BF4F2C91848D90E001968F739927848F16
:10023000A689B7892C93A089B1898C918370806439
:100240008C93938D848D981306C00288F389E02DDA
:1002500080818F7D80830895EF92FF920F931F938B
:10026000CF93DF93EC0181E0888F9B8D8C8D981369
:100270001AC0E889F989808185FF15C09FB7F89475
:10028000EE89FF896083E889F989808183708064C1
:1002900080839FBF81E090E0DF91CF911F910F910C
:1002A000FF90EF900895F62E0B8D10E00F5F1F4F1B
:1002B0000F731127E02E8C8D8E110CC00FB607FC2A
:1002C000FACFE889F989808185FFF5CFCE010E94B8
:1002D0000A01F1CFEB8DEC0FFD2FF11DE35AFF4F1B
:1002E000F0829FB7F8940B8FEA89FB898081806246
:1002F000CFCFCF93DF93EC01888D8823B9F0AA8903
:10030000BB89E889F9898C9185FD03C0808186FDD0
:100310000DC00FB607FCF7CF8C9185FFF2CF80811F
:1003200085FFEDCFCE010E940A01E9CFDF91CF9189
:1003300008951F920F920FB60F9211242F933F939F
:100340008F939F93AF93BF938091C5019091C60106
:10035000A091C701B091C8013091C40123E0230FDF
:100360002D3758F50196A11DB11D2093C40180932E
:10037000C5019093C601A093C701B093C8018091B5
:10038000C0019091C101A091C201B091C301019639
:10039000A11DB11D8093C0019093C101A093C20122
:1003A000B093C301BF91AF919F918F913F912F91D6
:1003B0000F900FBE0F901F90189526E8230F0296FE
:1003C000A11DB11DD2CF1F920F920FB60F92112413
:1003D0002F933F934F935F936F937F938F939F934D
:1003E000AF93BF93EF93FF9382E291E00E940A01E3
:1003F000FF91EF91BF91AF919F918F917F916F91FD
:100400005F914F913F912F910F900FBE0F901F90D2
:1004100018951F920F920FB60F9211242F938F935E
:100420009F93EF93FF93E0913201F091330180812C
:10043000E0913801F091390182FD1BC090818091DB
:100440003B018F5F8F7320913C01821741F0E09157
:100450003B01F0E0EE5DFE4F958F80933B01FF91F5
:10046000EF919F918F912F910F900FBE0F901F9042
:1004700018958081F4CF789484B5826084BD84B56A
:10048000816084BD85B5826085BD85B5816085BD8F
:1004900080916E00816080936E0010928100809147
:1004A00081008260809381008091810081608093CF
:1004B0008100809180008160809380008091B100F4
:1004C00084608093B1008091B00081608093B0001F
:1004D00080917A00846080937A0080917A008260B3
:1004E00080937A0080917A00816080937A00809175
:1004F0007A00806880937A001092C100E091320106
:10050000F091330182E08083E0912E01F0912F0180
:100510001082E0913001F09131018FEC80831092D4
:100520003A01E0913601F091370186E08083E09155
:100530003401F0913501808180618083E091340144
:10054000F0913501808188608083E0913401F091E1
:100550003501808180688083E0913401F09135011C
:1005600080818F7D8083CFE9D0E0FE0124910BE86C
:1005700010E0F80184918823C9F090E0880F991F5A
:10058000FC01EE58FF4FA591B491FC01E859FF4FD3
:10059000459154913FB7F8949C91822F8095982370
:1005A0009C93FA019081892380833FBF93EBE92ECE
:1005B00090E0F92EBB24B39420E0C22E20E0D22E8E
:1005C000F7018491FE019491F8012491222309F40A
:1005D0005DC0882351F0833009F441C0B0F581300B
:1005E00009F443C0823009F444C0E22FF0E0EE0F7A
:1005F000FF1FE458FF4FA591B4918C91982331E0EF
:1006000020E009F430E0832F922F2091BF012817BA
:10061000190679F0019741F44EE050E062E171E093
:1006200082E291E00E948C008091BF018B25809333
:10063000BF01C114D10409F4C3CF0E94F60088237E
:1006400009F4BECF0E940000BBCF8730A9F08830EC
:10065000C9F0843051F6809180008F7D03C0809175
:1006600080008F7780938000C0CF84B58F7784BD62
:10067000BCCF84B58F7DFBCF8091B0008F77809306
:10068000B000B3CF8091B0008F7DF9CF90E080E0D3
:10069000BCCFE2E2F1E01382128288EE93E0A0E0A8
:1006A000B0E084839583A683B78384E091E091834F
:1006B000808385EC90E09587848784EC90E0978731
:1006C000868780EC90E0918B808B81EC90E0938B1F
:1006D000828B82EC90E0958B848B86EC90E0978BFC
:1006E000868B118E128E138E148E0895EE0FFF1FBF
:0C06F0000590F491E02D0994F894FFCFE0
:1006FC00000000002C018C00B9007901EA00C80050
:10070C00DC00427574746F6E20707265737365646F
:02071C000000DB
:00000001FF
