:020000040000FA
:10000000FC7F0020790B0000690B00006D0B0000E5
:1000100000000000000000000000000000000000E0
:10002000000000000000000000000000710B000054
:100030000000000000000000750B0000CD0C000067
:1000400010B5064C2378002B07D1054B002B02D0AE
:10005000044800E000BF0123237010BD5C000020B5
:1000600000000000D01E000008B5084B002B03D094
:100070000748084900E000BF07480368002B03D089
:10008000064B002B00D0984708BDC046000000007A
:10009000D01E00006000002058000020000000007A
:1000A000064B0322104002040549586808401043DB
:1000B0005860DA695107FCD47047C0460008004216
:1000C000FFFFFCFF38B5284A284B5A805A7852B2B5
:1000D000002AFBDB264B04211A6A264D0A431A62CA
:1000E0002B68012213432B602A680123214C1A42FA
:1000F000FAD1E2691A42F7D11423236041001E4865
:1001000001F008FD421EE068FF231A4098431043A7
:10011000E0602368022213432360EA69154B9107CC
:10012000FBD45A8B30218A4310210A435A83EB694E
:1001300001205A07FBD4114B02241A7802431A708B
:100140000F4B0F22197891431970197821431970B8
:100150000C490C782043087019780A401A701A78F4
:1001600020210A431A7038BD14400000000C0040E2
:100170000004004000080042006CDC0248440041DA
:100180003444004149440041F7B500230F1C01925B
:100190001D1C994254D001212A4E4000084333705F
:1001A000C1B2294B0322588B1C1C000910400128A6
:1001B00004D05B8B1B091A40022AF2D1606AC00A84
:1001C000C00208436062217E1F4B0122880708D4C9
:1001D000197E1142F7D05968C02292020A435A6030
:1001E00003E05B8B9B08134201D0002528E03270AE
:1001F000237E9907FCD5154A154B117801251970F6
:100200006268BD4212D0134B022013406360FFF7B7
:1002100047FF33785A1C3270227E9007FCD50B4979
:100220000B480A780135C254EDB2E9E78023DB02BE
:10023000134363600199002902D00320FFF730FFC8
:10024000281CFEBD7800002000080042280800425B
:1002500099000020FFFFFBFF024B00221870024BA9
:100260001A7070477A00002079000020F8B5274BFB
:100270001C786400E4B2264B03215D8B1A1C2D0907
:100280000D40012D04D05B8B1B0919400229F2D1CE
:10029000536ADB0ADB0223435362117E01231942B6
:1002A000FBD01B49498B8908194204D00320FFF772
:1002B000F7FE022427E017490D782B1C002B11D0E4
:1002C000154EEC1A365D154C2670114E177E012422
:1002D000768B274202D12642F7D00BE0B6082642A1
:1002E0000ED007E00B701C1C00280CD00320FFF779
:1002F000D7FE08E003200B700324FFF7D1FE02E0D5
:10030000013BDBB2DAE7201CF8BDC0467A000020D2
:1003100000080042790000207B00002028080042ED
:10032000034A1378591C1170024AD05401207047B7
:10033000790000207B000020154A164B1178002917
:1003400009D11549187809784118C9B21970802067
:1003500012494003C86111780131C9B2117019788E
:10036000F02902D81978092909D80B4908784042A0
:10037000C0B20870187809784118C9B2197012789B
:100380001B789A4203D18022044B5203DA617047F2
:100390007D000020010000200000002000440041FA
:1003A00010B5041C6B20FFF757FF201CFFF7B8FFA8
:1003B0000120FFF75BFF01210A1C6B20FFF7E4FE21
:1003C000014B187810BDC0469900002038B5051CB7
:1003D0006B200C1CFFF740FF281CFFF7A1FF201C1F
:1003E000FFF79EFF0120FFF741FF022038BD08B54F
:1003F0000520FFF7D5FFCE23011C19400520FFF78C
:10040000E5FF012008BD000010B5041C0020FFF727
:10041000C7FF78232D4A9843C1B2944242D018D8DE
:100420002B4B9C4238D009D82A4B9C4230D02A4BC7
:100430009C422FD0294B9C4245D13FE0284B9C4207
:100440002CD0284B9C422BD0274B9C423BD12023C5
:1004500033E0264A94422BD00AD8254B9C4223D025
:10046000244B9C4222D0244B9C422CD1402324E09C
:10047000224A94421ED004D8214B9C4223D16023AF
:100480001BE0204A944217D01F4A944215D01AE02C
:10049000082312E0102310E018230EE028230CE0BC
:1004A00030230AE0382308E0482306E0502304E024
:1004B000582302E0682300E0702319430020FFF76F
:1004C00085FF012000E0002010BDC046581100004B
:1004D00018100000780F0000C80F0000280F00005F
:1004E000B810000008110000681000009812000009
:1004F000F811000048120000A81100003813000095
:10050000E812000088130000D813000010B5041C86
:100510000020FFF745FF07239843E122C1B2920074
:10052000944220D008D8962C18D0FA235B009C4225
:1005300017D0642C22D11CE0114A944215D005D862
:100540009623DB009C4219D1042311E0FA22D20049
:1005500094420CD00B4A94420AD00FE0012421436C
:1005600007E0022304E0032302E0052300E0062362
:1005700019430020FFF72AFF012000E0002010BDF2
:10058000DC050000B80B000070B504AC267805ACA3
:100590002578441EA041C401002901D040210C430C
:1005A000002A01D020221443002B01D010231C4329
:1005B000002E01D008231C43002D01D004231C432E
:1005C0000220FFF7EDFE0125011C294021430220F6
:1005D000FFF7FCFE281C70BD10B5041C0420FFF7BB
:1005E000DFFE03231840084B9C4204D0074B9C427B
:1005F00008D1B02100E0982101430420FFF7E6FE76
:10060000012000E0002010BD10100000701000005C
:1006100008B50120FFF7C4FECF23011C19400120BB
:10062000FFF7D4FE012008BD07B5FFF7E0FEFFF796
:10063000EFFF0948FFF7E8FEFA20C000FFF766FF6A
:10064000002300930193181C191C1A1CFFF79CFF30
:100650000248FFF7C1FF07BD08110000101000009D
:1006600008B50348FFF72EFDFFF7DEFF08BDC046C3
:10067000A086010010B5C3699C07FCD4036802245E
:10068000A3430360C46901231C42FBD104682343D4
:1006900003600368DC07FCD4C46901231C42FBD15E
:1006A000C469DC401C42F7D1084B1A430260C3699D
:1006B0005A07FCD4C0239B0243608181C3699C0715
:1006C000FCD4036802221343036010BD0400004001
:1006D000037EDA07FCD5018570470000027E012306
:1006E0005107FBD5428B1A4207D1428BDA401A429E
:1006F00003D1428B92081A4202D0034B01221A7096
:10070000008DC0B27047C0467E00002070B50368FF
:10071000041C988B1A1C0821FF32084226D0802026
:1007200099839872112353704021144B9171507129
:100730005E68134DC0202E40800506435E605E69F2
:100740003540284358610F4818600F4818615D68AC
:100750000E4828408025AD02284358605868800B19
:100760008003586000235171237105E0137ADA0683
:1007700002D5201C00F0E4FA207970BD9C01002015
:10078000FFFFFF8F9C0000201C010020FF3F00F0B6
:10079000002303714371044B016083600B780222D4
:1007A00013430B707047C0460D07000038B5364B39
:1007B0002021DA6901200A43DA61344B06241A78D1
:1007C00002431A70324B0F2219789143197019782D
:1007D000214319702F490C782043087019780A407A
:1007E0001A701A7860210A431A702B4B2B4A5A80D0
:1007F0005A7852B2002AFBDB294B01211A780A43AE
:100800001A709A78D107FCD426480268510B1F222F
:100810001140914200D1052111408C011D8D2249CA
:100820002940214319850468A10C0A401F2A00D1E0
:100830001D221C8D1F210A408C4322431A85026809
:100840000721D20D0A408A4200D103220A40188DA6
:100850001103164A02400A431A8519787F220A407A
:100860001A701A78042112480A431A7058621A89B9
:100870000C218A431A811A8901218A431A81002195
:10088000802201F0A0F938BD000400405844004126
:100890003C44004159440041000C00400640000027
:1008A00000500041246080003FF8FFFFFF8FFFFFF2
:1008B0009C010020F7B5141C1F4A5F0101971D1C05
:1008C000D319061C5869271C4000400F0330103311
:1008D000C74006D00F1C8022596812060A435A608E
:1008E00009E02F1C7B1E9F41144BBF01FF18381CD1
:1008F000221C01F05FF901990F4808354218176171
:10090000131C5269A104920B890C92030A435A6189
:1009100059690B4A0A405A616B01F3180222DA71D5
:100920005979802252420A435A716B01F318DB79DC
:100930009A07FAD5201CFEBD9C0100201C01002056
:10094000FF3F00F0F8B51A4E051C3378141C002B3D
:1009500012D1184B184A1A645A6C920B92035A64BB
:10096000586C164A02405A64A2235B00EA5C40209D
:100970000243EA54012333704827FF37EA5D01231D
:10098000134012D00B4B5A6C9204920CA24202D22A
:100990005C6CA404A40C081C221C074901F00AF991
:1009A0000123EB550023337000E01C1C201CF8BD14
:1009B0007F0000209C010020DC000020FF3F00F0B1
:1009C000FF3083792022002900D110221343837144
:1009D00070470000084BFF305A69920B92035A612E
:1009E00002230372827980235B4213438371037A6B
:1009F0009A07FCD57047C0469C01002080235B42CB
:100A00001943C9B28172704770B5A02303225B00FD
:100A1000C254134B134A5C6CC021144089050C432B
:100A200046255C64FF35402444550F4D30261D6437
:100A300090256D0046555D6B1540294392255963FD
:100A40006D0080214155094D1D63B0256D00445551
:100A50005C6F22405A67B2235B00C15470BDC04630
:100A60009C010020FFFFFF8FDC0000205C010020C4
:100A7000024B5B785BB2002BFADB7047000C004046
:100A8000024BDB68DA06FBD57047C0460008004021
:100A9000F8B52A4B1E22596891430222114359602E
:100AA000274B28491E1C9982998A0A439A82F36827
:100AB0000227234C3B42FAD0234D0123AB60FFF7C2
:100AC000D7FF224B6B60FFF7D3FF8223DB016B80E4
:100AD000FFF7CEFFA38C80229343A384FFF7D0FFC0
:100AE0001B4BE362FFF7CCFFA38C1A4A1343A3848A
:100AF000FFF7C6FFA38C1F43A784F3681A06FCD533
:100B00000F4BDB685A06F8D50024FFF7B9FFAC603D
:100B1000FFF7AEFF104B6B60FFF7AAFF0F4B104AB9
:100B2000C0215A600F4A0906106A0002000A0143F8
:100B3000116207229C601A60F8BDC0460040004167
:100B4000000800400C060000000C004001050100F8
:100B5000B805FF7D040A00000007030010E000E074
:100B6000E703000000ED00E00EBEFEE70DBEFEE76D
:100B700005BEFEE702BEFEE70E4A0F4838B58242C8
:100B800004D10E4A0E4B93420ED10AE00D4C944212
:100B9000F7D00023D1188842F3D9E55804330D600B
:100BA000F8E700F011F804E09342FAD2002102C302
:100BB000FAE7FEE7000000205C000020AC03002004
:100BC0005C000020D41E000038B5344D2B68013382
:100BD0001AD0334B2A1D1A60EAB2002A14D1314BC5
:100BE000197801231940304B0AD118682F4A9042D6
:100BF00001D1196008E01A602D4A013A002AFCD19F
:100C00001A602C4B01221A70FFF742FF62B6FFF701
:100C100027FD284B284C1B78002B0AD02B6883F328
:100C200008881E4BFF229343A3601D4B1B681B6863
:100C3000184700F09DFD00F04FF8204B8022520332
:100C40009A601F4B1F4A051C5A60216AC022090284
:100C5000090A12060A43226200229A6007221A60D9
:100C6000AB68281C9847184B002801D001221A7045
:100C70001A78002A05D0002000F08CFA00F004FB5E
:100C8000FCE71B78002BEBD100F0E6FD0028E7D055
:100C9000012000F07FFA00F0F7FAFCE700200000E6
:100CA0001C02002038040040FC7F002035817307BF
:100CB00048E801008000002000ED00E00044004111
:100CC00010E000E0E70300008100002008B5FFF716
:100CD00033FB00F0C3FA08BD10B5054B054C23608B
:100CE000FFF764FD201C2168FFF752FD201C10BD9A
:100CF000005000412002002070B5051CC0B0081C47
:100D0000161C0C1C00F067FF40006A4603230230EB
:100D10005370107076080123E218013A11785A00D6
:100D2000002906D1281C69460023FFF7C3FD40B007
:100D300070BDB342F6DA684681520133ECE7000039
:100D4000F7B5BA4A04681378B949271CFF37051C60
:100D5000102038720B705378B648B74E03709378F2
:100D60003380D178338809020B4333801179B34B38
:100D70001980517918880902084318809079B04980
:100D80000880D2790888120202430A8040227A71D0
:100D9000A84F3A78A64F120238780F1C0243A94890
:100DA0008446181C624500D1C2E020DC8021490045
:100DB0008A4200D16EE109DC812A00D192E0822AC8
:100DC00000D195E0802A00D064E18BE081235B00B4
:100DD0009A4200D1CFE000DA58E1C0239B009A424A
:100DE00000D157E1984B9A4200D14FE152E1902354
:100DF0001B019A4269D015DCD023DB009A4222D035
:100E000088231B019A4269D0A023DB009A4200D0BC
:100E100040E1201CFFF7DEFD3188286889B2FFF72A
:100E2000EDFD3BE1894B9A4200D12FE100DC31E13D
:100E3000874B9A4200D11DE1864B9A4200D029E1AE
:100E400033886B7122E133881B0A012B08D10B8890
:100E500012222868934201D80A8892B27E4911E191
:100E600033881B0A022B08D10B884322286893423F
:100E700001D80A8892B2794904E133881B0A032B0E
:100E800000D007E13388DBB2012B17D0002B07D04D
:100E9000022B00D0FEE00A882868D2B2704911E027
:100EA000042201A86F4900F085FE3B8804222868CF
:100EB000934201D83A8892B201A9E3E00A882868EF
:100EC0006949D2B2FFF718FFE8E03388201C2B7184
:100ED000FFF780FD201CFFF797FDDFE0291C01C90B
:100EE0000122CFE0614900230B8028680222CAE07A
:100EF0005E4900220A801888502210405C4A107017
:100F00001E880F20304018801888032800D9C1E0BF
:100F100012781B8808335B01E418A379002A01D0FA
:100F20009B0600E0DB06DB0F0B8028680222A9E0AD
:100F300019887F2291434E4AC9B2117018880F2137
:100F4000014019803188002900D0A3E019880029C8
:100F500000D19FE01988032900D99BE012781B88F3
:100F600008335B01E318002A02D020225A718DE079
:100F7000102159718AE002887F239A433C4BD2B2F8
:100F80001A7001880F220A4002803288002A00D09D
:100F900080E00288002A00D17CE00288032A00D980
:100FA00078E01B78002B1FD0038808335B01E3181F
:100FB0009B799A066AD50388202208335B01E318DF
:100FC0001A71038808335B01E318DB795F065DD58E
:100FD0000388402208335B01E318DA710388022298
:100FE00008335B01E3181EE0038808335B01E31854
:100FF0009B79D9064AD50388102208335B01E31890
:101000001A71038808335B01E318DB799A063DD532
:101010000388202208335B01E318DA710388012278
:1010200008335B01E3181A7130E0C0469C000020D1
:1010300083000020880000208A0000208C0000200F
:1010400086000020020300000103000021200000B0
:10105000A121000021220000241C00000400002027
:101060000C1C0000FC1B0000001C00008400002081
:10107000820000200B8808222868934201D80A8841
:1010800092B207490023FFF715FC07E0201CFFF789
:10109000A1FC03E0201C0121FFF792FCF7BDC04634
:1010A0004800002007B5054B0122019001A91868EE
:1010B000131CFFF7FFFB01200EBDC04620020020DD
:1010C00013B5054B6C4607341868211C0122FFF745
:1010D00039FC207816BDC0462002002010B5074C10
:1010E000201CFFF713FB031C0020834205D022685D
:1010F0004823FF33D05C0123184010BD200200209C
:1011000010B5054A0C1C031C191C10680123221C75
:10111000FFF7D0FB201C10BD2002002070B5084C4A
:10112000061C201C0D1CFFF7F1FA0023984205D085
:101130002068311C2A1CFFF705FC031C181C70BD1D
:1011400020020020F8B50C4C051C201C0E1CFFF7DB
:10115000DDFA0023271C341C98420AD0002C07D04B
:10116000291C221C3868FFF7EDFB241A2D18F5E71F
:10117000331C181CF8BDC0462002002008B5031C13
:10118000081C111C9847024B64221A8008BDC046F7
:1011900092000020012805D1054B064A1A60064B33
:1011A000187004E0002802D1044A014B1A6070470D
:1011B00090020020581C000098000020A41C000091
:1011C00030B50A1C1C4985B00978031C00292AD0B7
:1011D000042A01D1006804E0022A01D1008800E05D
:1011E0000078520004A98B180B3B9C1AA3420BD029
:1011F0000F210140092902D83025294300E0373169
:1012000019700009013BF1E701A930230B70782325
:101210004B700A208B1898700D20D870074B043241
:101220001B68D86803E005490968C868191CFFF7FE
:10123000A5FF05B030BDC0468E0000209002002002
:1012400072B6EFF30883044A1360036883F30888D7
:10125000436818477047C04694020020084B1A881C
:10126000002A03D01A88013A92B21A80054B1A88D4
:10127000002A03D01A88013A92B21A807047C046F9
:101280009200002090000020F0B591B008A9CC4A4F
:101290000B1C31CA31C351CA51C360CA60C3C94BA8
:1012A000C9489A687A255203520F92005258C7498A
:1012B00002609C68A4B262430C60C54900240A60C5
:1012C000C44A1460C44C2570C44CC54D2368281C06
:1012D0001B6940219847002802D0C24B64221A8023
:1012E000C14B00221860C14B1D60C14BC04DBE4FA9
:1012F0001A602A683B689A42E6D2BC4B1B681A788F
:10130000FF2A00D114E2232A00D0EBE1B94E337852
:10131000002B06D0B14BB8491B680222D868FFF7F2
:101320002DFFAD4B1B78532B3CD13B682A68934271
:101330001ED9AE4801322A609A1AB04B01681B6868
:1013400001310160AE4E9A4201D2326000E033605A
:10135000A04832680068049000F02CFC33682968CB
:101360005A182A60A14A1668F1181160A54A13702C
:101370002B68013B2B609D4B1A68013A1A60A14B08
:101380009E4A1B7811688B420AD222689148C91A7A
:10139000006892699047002802D0924B64221A801C
:1013A000C0468DE1522B0AD18A48944A23680068CE
:1013B00011685B69039098476422934B0DE04F2BB3
:1013C00005D1844B8D4A1B6812681A7078E1482B4E
:1013D00005D1804B894A1B6812681A8070E1572B2F
:1013E00005D17C4B854A1B6812681A6068E16F2B37
:1013F00003D1784B0121186807E0682B08D1754BA1
:101400007E481B6802211B880360FFF7D9FE57E165
:10141000772B06D16F4B79481B6804211B6803604A
:10142000F3E7472B13D1754B1868FFF709FF774B8C
:101430001B6883F3088862B6754B1B78002B00D1BC
:101440003EE1664B06201B681B68984738E1542B29
:1014500004D101233370614B1B6864E04E2B0CD127
:101460003378002B06D15D4B63491B680222D86894
:10147000FFF784FE0023337022E1562B57D12368F7
:101480006449D8680122FFF779FE23686249D86869
:101490000322FFF773FE614D2368291CD8680122DF
:1014A000FFF76CFE23685E49D8680D22FFF766FEE1
:1014B0002368291CD8680122FFF760FE4B4F4C4D72
:1014C0005849002339602B603A1C281C13685E1CA5
:1014D00016601B780593002B03D00368013303606B
:1014E000F4E73E4E2A683368D868FFF747FE336852
:1014F0004A49D8680122FFF741FE059929604A4907
:1015000039603A4A1368581C10601B78002B04D0CD
:10151000374B1A6801321A60F3E733682A68D868D3
:10152000FFF72CFE3368D86833490222C6E0334AFD
:10153000582B17D1244E264D366813682A68B100FF
:1015400093420AD21F4D5808E861384828801D4D43
:10155000287DC607FBD55B18F2E7204B34491B6892
:10156000D868AAE0592B79D112681A4B3149002A60
:1015700002D11B680B606CE0124D086819686B683B
:10158000104E8025AB4392087360002A61D02A4B2D
:101590000C4D2B800B4E337DDD07FBD500230A4D10
:1015A0002D680195AD08AB4203D3244D054E35801F
:1015B00046E09342F9D09D00465901334E51EEE783
:1015C000381C00000040004148020020400200207A
:1015D0003C0200208C0200203802002090020020F3
:1015E0004C02002090000020300200203402002035
:1015F000440200208E000020981C00009802002069
:101600009C0200202C020020920000209402002066
:1016100098000020741C00009D1C0000761C000037
:10162000C01C0000781C0000841C000002A5FFFF05
:101630008D1C00009400002044A5FFFF04A5FFFFBF
:101640003F4E357DEE07FBD59D0049194019D21A52
:101650009BE73C4B3C491B68D8682EE05A2B2FD1A6
:101660003A4B17681D680026EF19BD4206D028784E
:10167000311C00F013F90135061CF6E7314B3449F3
:101680001B680122D868FFF779FD07230F2232403B
:10169000111C36093031092A00DD07311820C01825
:1016A0006A468154013BF1D2236806A9D868082212
:1016B000FFF764FD23682749D8680322FFF75EFD22
:1016C000254B7A221A70254B00221A60244B1B7876
:1016D00093422DD01B4B23491B680122D868FFF78A
:1016E0004DFD25E0111C3039C8B21C4B092804D827
:1016F0001D682A01114319601AE0111C413905299E
:1017000003D81E68373A310106E0111C61390529FA
:1017100004D81868573A01010A4308E02C2A03D17B
:101720000A4A1968116001E00B490A7000221A6028
:101730000D4B1A6801321A600C4B1A680132D5E55C
:101740000040004190020020911C00008C0200200B
:10175000951C0000971C0000380200209802002011
:101760008E0000209B1C0000440200203402002058
:1017700010B51C4B01201A78032402431A701A4B2F
:101780000F2219789143197019782143197017495C
:101790000C782043087019780A401A701A783021A2
:1017A0000A431A70124B80211A6A0A431A62114BBB
:1017B000114A5A805A7852B2002AFBDBC4220F48E1
:1017C0000F499203FEF756FF0E4A002313700E4A8C
:1017D00013700E4A13700E4A13700E4A13700E4A9D
:1017E000137010BDD6440041BB440041D7440041B2
:1017F00000040040000C004019400000001C0042A2
:101800002AF60000A002002027030020A1020020E9
:10181000A4020020280300202503002008B5C1B23F
:101820000248FEF755FF012008BDC046001C0042DB
:10183000024B187E4007C00F7047C046001C004294
:1018400008B5FFF7F5FF0028FBD00248FEF746FF7A
:1018500008BDC046001C004208B5FFF7E9FF0023A1
:10186000984205D0FFF7ECFF031C233B5A4253413B
:10187000181C08BD70B5041C0D1C4618B44204D0D9
:101880002078FFF7CBFF0134F8E7281C70BD10B5B6
:10189000041CFFF7D5FF2070012010BD0B0A584033
:1018A000034B4000C05A0902484080B27047C0460E
:1018B000CE1C0000F7B50024051C0F1C261CBC42E2
:1018C00020D0FFF7BDFF114BC0B21B780190002B59
:1018D0001AD1311CFFF7E2FF0D4B061C1A88002AB3
:1018E00004D10C4A11782A1C002907D001996A1CDE
:1018F0002970802F02D11988013919800134A4B2CE
:10190000151CDCE7301C00E00120FEBD2503002093
:10191000A202002026030020F0B53E4E85B0002232
:1019200003900C1C32703C4B914201D1012201E02A
:101930003A490C801A707F231C4201D080349C43AA
:10194000FFF77EFF3378C0B2002B07D0002535703B
:10195000FFF776FF3378C0B2AB4236D1432803D0CD
:10196000712853D01528EBD1012300930120FFF7F4
:1019700055FF0098FFF752FF00998025C843C0B279
:10198000FFF74CFF039B00270293244A1388002B88
:101990001DD1214901930978002918D10198FFF739
:1019A0003DFF391C0198FFF779FF013D071C002D11
:1019B000EBD1000AC0B2FFF731FFF8B2FFF72EFFFC
:1019C000FFF73EFF3378002B0AD035701FE00299F5
:1019D000013B09781380029B019101330293DDE7FB
:1019E000C0B2062807D1009B03990133DBB28031D6
:1019F0000093803C0391002CB8D10420FFF70EFF28
:101A0000FFF71EFF044B01251C7000E00025281C79
:101A100005B0F0BD2503002026030020A20200200F
:101A2000F0B5384C87B0002301902370994201D162
:101A3000012301E0344A1180344A642613704320A4
:101A4000FFF7ECFE324FFFF7F3FE002803D1002F23
:101A500003D0013FF7E7002F03D1013E002EEED166
:101A60004DE00125FFF7ECFE2378002B38D1C0B202
:101A70000290012805D004283DD10620FFF7CEFEB4
:101A800039E005AE0221301CFFF714FF01988021D8
:101A9000FFF710FF23780390002B18D1FFF7D0FE3B
:101AA0000702FFF7CDFEBFB223783F18BFB2012B6C
:101AB0000DD0039B9F4207D13378AB4204D1EB4357
:101AC0007278DBB29A4204D01820FFF7A7FE0023F9
:101AD00003E00620FFF7A2FE029B2278002A02D034
:101AE000002626700BE0012B05D1019A6B1C803279
:101AF000DDB20192B6E7054A002313700126301CBF
:101B000007B0F0BD25030020A2020020260300201C
:101B100000350C00002934D00123002210B4884283
:101B20002CD301242407A14204D2814202D209010C
:101B30001B01F8E7E400A14204D2814202D249002D
:101B40005B00F8E7884201D3401A1A434C08A042D0
:101B500002D3001B5C0822438C08A04202D3001B66
:101B60009C082243CC08A04202D3001BDC0822437D
:101B7000002803D01B0901D00909E3E7101C10BCA1
:101B80007047002801D00020C04307B4024802A1DA
:101B90004018029003BDC046190000000029F0D093
:101BA00003B5FFF7B9FF0EBC4243891A1847C04678
:101BB0007047C04610B50023934203D0CC5CC45498
:101BC0000133F9E710BD031C8218934202D019704B
:101BD0000133FAE770470023C25C0133002AFBD1CE
:101BE000581E7047F8B5C046F8BC08BC9E46704702
:101BF000F8B5C046F8BC08BC9E467047040309040B
:101C000041726475696E6F204C4C4300417264757B
:101C1000696E6F204D4B5220576946692031303133
:101C20003000000012010002020000404123540075
:101C30000002010200010000080000001000000086
:101C400020000000400000008000000000010000B3
:101C500000020000000400001D18000041180000F0
:101C600031180000751800008F18000019190000C5
:101C7000211A00007600200041707220313120329C
:101C80003031390031333A30393A353600580A0D9F
:101C900000590A0D005A00230A0D003E00322E3072
:101CA00000000000A5100000C1100000DD100000C1
:101CB000011100001D11000001110000451100007C
:101CC0005B41726475696E6F3A58595A5D00000045
:101CD0002110422063308440A550C660E77008811F
:101CE00029914AA16BB18CC1ADD1CEE1EFF1311296
:101CF000100273325222B5529442F772D66239936F
:101D000018837BB35AA3BDD39CC3FFF3DEE36224E5
:101D1000433420040114E664C774A44485546AA5BE
:101D20004BB528850995EEE5CFF5ACC58DD5533675
:101D3000722611163006D776F6669556B4465BB70E
:101D40007AA719973887DFF7FEE79DD7BCC7C44845
:101D5000E5588668A7784008611802282338CCC95E
:101D6000EDD98EE9AFF9488969990AA92BB9F55AD5
:101D7000D44AB77A966A711A500A333A122AFDDBAE
:101D8000DCCBBFFB9EEB799B588B3BBB1AABA66CA5
:101D9000877CE44CC55C222C033C600C411CAEEDFE
:101DA0008FFDECCDCDDD2AAD0BBD688D499D977EB5
:101DB000B66ED55EF44E133E322E511E700E9FFF4E
:101DC000BEEFDDDFFCCF1BBF3AAF599F788F889104
:101DD000A981CAB1EBA10CD12DC14EF16FE18010E8
:101DE000A100C230E3200450254046706760B983EB
:101DF0009893FBA3DAB33DC31CD37FE35EF3B10238
:101E00009012F322D2323542145277625672EAB5FA
:101E1000CBA5A89589856EF54FE52CD50DC5E23487
:101E2000C324A01481046674476424540544DBA7CA
:101E3000FAB79987B8975FE77EF71DC73CD7D326D7
:101E4000F2369106B01657667676154634564CD95A
:101E50006DC90EF92FE9C899E9898AB9ABA9445827
:101E6000654806782768C018E1088238A3287DCB2A
:101E70005CDB3FEB1EFBF98BD89BBBAB9ABB754A77
:101E8000545A376A167AF10AD01AB32A923A2EFDBA
:101E90000FED6CDD4DCDAABD8BADE89DC98D267CC7
:101EA000076C645C454CA23C832CE01CC10C1FEF0A
:101EB0003EFF5DCF7CDF9BAFBABFD98FF89F176E17
:101EC000367E554E745E932EB23ED10EF01E00004B
:101ED000000000000114000009024300020100801C
:101EE0003209040000010202000005240010010470
:101EF00024020005240600010524010001070583D2
:101F0000030800FF09040100020A00000007058120
:101F100002400000070502024000000000C201006C
:101F200000000800690000004100000000000000FF
:1020000000800020F12B0000D92B0000D92B00000C
:1020100000000000000000000000000000000000C0
:10202000000000000000000000000000D92B0000AC
:102030000000000000000000D92B0000452C00002B
:10204000D92B0000D92B0000D92B0000D92B000080
:10205000D92B0000D92B0000D92B0000DD2B00006C
:10206000D92B0000D92B0000D92B0000D92B000060
:10207000D92B00004922000039220000D92B000092
:10208000D92B0000D92B0000D92B0000D92B000040
:1020900000000000D92B0000D92B0000D92B000034
:1020A000D92B0000D92B0000D92B0000D92B000020
:1020B0000000000010B5064C2378002B07D1054B1B
:1020C000002B02D0044800E000BF0123237010BDA4
:1020D000A000002000000000704F0000044B10B56D
:1020E000002B03D00349044800E000BF10BDC046E8
:1020F00000000000A4000020704F000010B5034B4A
:1021000001211868C0B200F0FBFF10BD00000020E4
:1021100070B5FA24094D01212B68A400D8B201F052
:102120003BF8200000F0D2FD28680021C0B201F089
:1021300033F8200000F0CAFD70BDC046000000204A
:1021400070B50121202000F0DBFF0021202001F0EC
:1021500023F80A2000F0BAFD0021202000F0D0FF73
:10216000642000F0B3FD202000F05CFF9623050002
:102170009B002F4C984222DD2E49200000F072FA7D
:10218000200000F055F903210B2001F031F8032164
:102190000C2001F02DF800226B21200000F07EF9C8
:1021A0000121200000F0BCF91B21200000F0B8F94B
:1021B0002000032100F05CF9200000F04EF91D49D9
:1021C000200000F04FFA200000F032F903210B202C
:1021D00001F00EF803210C2001F00AF800226B2117
:1021E000200000F05BF90721200000F099F9962308
:1021F0002B219B009D4200DD2039200000F090F94A
:102200000321200000F034F9200000F026F901211C
:102210001E2000F075FF01211E2000F0BDFF0121EE
:102220001F2000F06DFF01211F2000F0B5FF70BDE1
:1022300054050020A086010010B5024800F0FDFB07
:1022400010BDC046BC00002010B5024800F0F5FBF0
:1022500010BDC046000300207FB51949194800F0A1
:102260004BF81949194800F047F81949194800F086
:1022700043F81949194800F03FF8194C1949200052
:1022800000F03AF8184E1949300000F035F80125F1
:1022900003233100019500930D220B33144800F005
:1022A00045FB1D230393013B02931A3B01930095C9
:1022B00018331B2221000F4800F0F4FA7FBDC046FE
:1022C0000008004244050020000C00424C0500209C
:1022D0000010004254050020001400425C0500205C
:1022E00064050020001800426C050020001C00421C
:1022F000BC00002000030020002303710160704730
:102300009446F0B59E1E721E96416246056892077D
:102310002F6836063A4332432A60072505AC2478F5
:102320000068A4012940214342680024022B00D008
:102330005C03114321434160F0BD30B5C025036803
:10234000AD031C6812052A402243C0240904A402DC
:1023500021401143196003685A6814435C6030BD22
:102360000123026811680B43136003681A68D207DF
:10237000FCD4DA69D207F9D47047022302681168E5
:102380000B4313600268D3699B07FCD47047026853
:10239000137E9B0702D40379002BF9D1002303712C
:1023A0007047002203685A8370470368187E40070D
:1023B000C00F70470368187EC00970478023026809
:1023C0005B42117E0B43137670470368588B80077E
:1023D000C00F704702230268518B0B435383704731
:1023E0000368187EC007C00F70470368188DC0B21D
:1023F000704703681A7ED207FCD589B2198501237C
:10240000037118007047012203689A757047012212
:1024100003681A7570470123026811680B43136043
:1024200003681A68D207FCD4DA69D207F9D4704776
:102430000223026811680B4313600368DA6992078C
:10244000FCD430215A8B8A43110010220A435A834C
:102450000268D3695B07FCD47047022102681368E5
:102460008B4313600268D3699B07FCD4704700005C
:10247000032230B5036811401C68074D5A680904EF
:102480002A40E4061143640F5960052C03D1026809
:10249000D3695B07FCD430BDFFFFFCFF70B5056856
:1024A00004006B8B9B069B0F022B0DD06B8B0020C7
:1024B0009B069B0F032B32D06B8B9B0704D56B8B3A
:1024C0009B069B0F012B2AD16B6A49001143DB0A43
:1024D000C9B2DB020B436B622368002A13D11A7E58
:1024E000D207FCD55B8B9B069B0F022B04D04908BF
:1024F00000222000FFF7D2FF2368588B4007C30F4C
:10250000012058400BE0187E8007C00FF4D11A7EDE
:10251000D207F8D5C022596892020A435A6070BDAA
:102520000368283319700268107EC007C30F508BF0
:10253000002B06D1C007C00F08D1538B9B07F3D5E2
:1025400070474007C30F01205840F9E71800F7E72C
:102550000368214A30B593422FD0204A93422FD0AE
:102560001F4A93422FD01F4A93422FD01E4A9342B4
:102570002FD01E4A93421FD10E2319220121032579
:1025800099401B48C024016099082B40AB40FC35A2
:102590009D4089000918A4000859A843C0259D4002
:1025A0002B0003430B518023DB011A43114B5A804C
:1025B0005A7852B2002AFBDB30BD09231422DDE732
:1025C0000A231522DAE70B231622D7E70C2317225A
:1025D000D4E70D231822D1E700080042000C004286
:1025E000001000420014004200180042001C00428B
:1025F00000E100E0000C0040F8B504000F001600F8
:102600001D00FFF7A5FF2000FFF7AAFE1C21BB005D
:102610000B4071072268090C0B4313608423226866
:102620009375012F1AD11021012E00D008390C4BBF
:1026300069431868C00002F0BFF807222168024011
:102640008B895203DB04DB0C13438B812268030468
:102650009089DB0C400B400318439081F8BDC046C5
:1026600004000020F8B504000F00FFF771FF200000
:10267000FFF7D1FE1422236879001A600C4B2568FD
:102680001E68300002F098F80A490400300002F099
:1026900093F87D23FA215843C90002F08DF8FF23F7
:1026A000241AE868053C1C4098430443EC60F8BDDC
:1026B0000400002040420F000120704710B503685D
:1026C000014A1B6A984710BD13040000FC30006AE1
:1026D000704787239B00C018C36880204000C01A41
:1026E00070470300FC331A6A002A03D0DB69C01864
:1026F000007D704701204042FBE710B504000069EF
:10270000FFF72EFE22000023FC329361D361136297
:1027100087229200A4186360A360E36010BD872342
:1027200010B59B00C218D368002BFCD10069FFF7DD
:102730002EFE10BD0368002B02D162B6BFF36F8F6F
:102740007047F02001403039484248417047F0233B
:102750001B011940802306209B0099420AD00133B7
:10276000FF330130994205D0802302385B00994243
:1027700000D0002070470F2001400020012903D025
:102780000239481E8141481C704700008B23F0B578
:10279000182685B002919B000400C05C330008211C
:1027A0004343324D1700EB18595600F021FD304BD2
:1027B0000821E05C33004343EB18595600F018FD44
:1027C0002C4BE25C0393022A09D11133E05CFF2811
:1027D00005D008214643AE19715600F009FD8C263C
:1027E000B600A05DFF2819D0012100F089FC182255
:1027F000A35D21495A43AB56AD18DB0158188D2112
:10280000890060501D4901225B188E2189006350A8
:1028100069688A408F21890062501A600122029BF8
:1028200011002069FFF7E8FE39002000FFF78FFF55
:10283000390005002000FFF79EFF39000600200048
:10284000FFF77FFF33000090290020690122FFF786
:1028500057FD0B4B2069E25C039BE15CFFF76DFDCC
:102860002069FFF78AFD05B0F0BDC046204B00008F
:102870002D0200002F0200001844004114440041C2
:102880002E020000802210B504005200002102F048
:1028900060F823000022FC335A6020009A60DA605E
:1028A00010BD0000F0B585B01D000AAB1B78040018
:1028B00000930BAB1B78160001930CAB1B780F0039
:1028C00002930DAB1B78039300234360FA239B0014
:1028D0008360124B083303601430FFF7D3FF2000EE
:1028E0002130FF30FFF7CEFF8B236A469B00276124
:1028F000E6540B4B1278E5540A4B2000E2546A462A
:10290000094B1279E2546A46127A0133E2546A465C
:10291000127B1033E25405B0F0BDC046804E00007B
:102920002D0200002E0200002F020000F7B51D004E
:1029300008AB1B780400009309AB1B7816000193C9
:1029400000234360FA239B008360114B0F00083380
:1029500003601430FFF796FF20002130FF30FFF7AF
:1029600091FF8B236A469B002761E654094B12783E
:10297000E554094B2000E2546A46084B1279E254B0
:102980008C22313BFF3B9200A3541032A354FEBD76
:10299000804E00002D0200002E0200002F020000D9
:1029A000F7B5EFF3108300930123019372B68026ED
:1029B0000200FF25019BFC327600013B5C1C0FD01E
:1029C000D4685F1EB44209D054680155546801347C
:1029D0002C405460D4680134D460EEE73B00EDE74E
:1029E00068460193FFF7A6FEF7BD13B5EFF310831A
:1029F00000930123019372B6019B5A1E0192002B92
:102A000015D00300FC33DA68002A0DD09A68845C84
:102A10009A680132D2B29A60DA68013ADA6068469E
:102A2000FFF788FE200016BD01246442F7E7012469
:102A30006846FFF77FFE6442F4E710B504000069C2
:102A4000FFF7C3FC002805D02069FFF7CEFC206902
:102A5000FFF7C0FC2069FFF7A8FC00281BD0206905
:102A6000FFF7C3FC010020001430FFF799FF8C230F
:102A70009B00E35CFF2B0ED02300FC331A6A8023FB
:102A80005B009B1A092B06DC8D238F229B00920092
:102A9000E358A2581A602069FFF7A2FC00280ED064
:102AA00087239B00E318DB68002B14D02000213023
:102AB000FF30FFF79AFFC1B22069FFF79AFC206947
:102AC000FFF778FC002805D02069FFF777FC206924
:102AD000FFF767FC10BD2069FFF799FCEFE70000E6
:102AE000F8B5040000690D00FFF77AFC87239B000E
:102AF000E618002802D0F368002B34D0012780228A
:102B0000F3685200934223D1EFF310833B4210D17C
:102B1000174B5B68DB05DB0DF1D0103B5BB2002B84
:102B200010DAF13A1340083B9B08124A9B009B18AD
:102B30001B682069FFF754FC0028E0D02000FFF755
:102B40007CFFDCE79B08C0330B4A9B009B58F0E7F7
:102B500020002130FF302900FFF722FF2069FFF716
:102B600052FC0120F8BD29002069FFF742FCF8E77C
:102B700000ED00E01CED00E000E100E010B5040015
:102B80001430FFF732FF8C239B00E35CFF2B0ED049
:102B90002300FC331A6A80235B009B1A0A2B06DD94
:102BA0008E238F229B009200E358A2581A6010BD1A
:102BB000F7B506000D000C008B180193019B671BF5
:102BC0009C4207D0336821781B6830009847013455
:102BD0000028F3D13800FEBDFEE70000034B10B51E
:102BE0001B68002B00D0984710BDC046740500201C
:102BF00070B50F490F4CA14204D100F0AFF800F0BE
:102C00008DF8FEE70C4D00238D42F6D0CA18E81867
:102C1000A24205D3094B8242EFD00949002204E0C9
:102C2000006804331060F1E704C38B42FCD3E4E78F
:102C300000000020A0000020744F0000A000002031
:102C4000B40B002010B500F066F8002801D100F0A8
:102C500057F810BD014B18607047C046740500203E
:102C6000014B18687047C04678050020F7B5134837
:102C7000012284461249134C8E68636805689B0ED6
:102C80001340019288686268019F920E3A4067463D
:102C90003F6893420ED1BD420CD186420AD35B19E4
:102CA000FA254868AD00861B07486B437043000D4A
:102CB000C018FEBD3D0013000600E3E778050020C4
:102CC00010E000E000ED00E05555000070B5041E76
:102CD00010D0FFF7CBFF050000F01CF8FFF7C6FF90
:102CE000054B401B9842F7D9FA23013C9B00ED1895
:102CF000002CF3D170BDC046E70300007047000010
:102D000010B5034A13680133136000F0E3FA10BDF5
:102D100078050020704700207047000010B500F0D3
:102D2000CDF801F0D5FDFFF70BFA0120FFF7CEFF3C
:102D3000084C200001F00CFA200000F04FFCFFF7D7
:102D4000DDF9FFF7E5F9044B002BFAD000E000BFF6
:102D5000F7E7C046A4050020000000001E2270B561
:102D600046484749436893431C3A1343436008234A
:102D70008C6923438B61434C434B9C829C8A144354
:102D80009C82DC681442FCD00124404A14701578FF
:102D9000254203D055786DB2002DF8DB01249460F4
:102DA000547864B2002CFBDB394C5460547864B224
:102DB000002CFBDB8224E4015480547864B2002CA4
:102DC000FBDB02249C840E34DD682542FCD0314CB0
:102DD000DC621024DD682542FCD09D8C2E4C2C43F7
:102DE0009C841024DD682542FCD002249D8C802622
:102DF0002C439C844024DD683542FCD0DD682542AC
:102E0000F9D01024DD682542FCD000249460547869
:102E100064B2002CFBDB214C5460547864B2002C6B
:102E2000FBDB1C6A1E4D2C4080251C621C6AAC43D7
:102E30001C62032393601B4B536053785BB2002BDF
:102E4000FBDB0023FF240B72174A4B728B72CB7291
:102E5000164B1A60164B174A1B6811689A065B01DD
:102E6000C90E2340520F12020B431343124A13851B
:102E7000802342681343436070BDC0460040004158
:102E8000000400400C06000000080040000C004058
:102E900001050100B905FF7D040A000000070300D9
:102EA000FFFCFFFF03060100006CDC0204000020B1
:102EB000246080002060800000400042FA21314BF5
:102EC00010B51868890001F077FC2F4B0138984243
:102ED00056D82E492E4A4860C020136A00061B02AD
:102EE0001B0A03431362002407238C600B608021BC
:102EF000136A09061B021B0A0B431362FC22254BB3
:102F0000196A0A431A62FC22196A92010A431A6278
:102F1000A022196AD2020A431A62E0B200210134E7
:102F200000F0EEF80F2CF8D11B4B1C005A7852B26F
:102F3000002AFBDB194A5A80194B1A00597EC9092D
:102F40000129FBD0E421C90099803F21D970537E2B
:102F5000DB09012BFBD0C02300205B0113619070C3
:102F600000F02EF863785BB2002BFBDB0D4B0E4AB2
:102F70006380D379DB09012BFBD04123537010BD53
:102F8000FEE7C04604000020FFFFFF0010E000E065
:102F900000ED00E000040040000C00401E40000076
:102FA000004000422140000000480042914202D00F
:102FB00002D98A1AD0407047521A9040FBE70000AD
:102FC000164A00B51300517EC9090129FBD001380A
:102FD000042816D81969124A0A400F211A615A7832
:102FE0008A4301F0DFFB0308060B030011000122F6
:102FF0000A435A7000BD11000322F9E711000222B2
:10300000F6E7F02311691B050B430F211361537879
:103010008B43190002230B435370EBE7004000423F
:10302000FFFFFFF010B504000E2801D80F34E4B202
:103030000121200000F0DCF81823102163432B4C01
:10304000E4186156002901D014290DD1284B18002D
:10305000DA79D209012AFBD002241A78A2431A7025
:10306000C379DB09012BFBD022480300427ED20941
:10307000012AFBD01F2402692140A2430A430261B6
:103080005A7ED209012AFBD0022219780A431A700B
:103090005A7ED209012AFBD00222197B0A431A73F5
:1030A0001A7ED207FCD501221A765A7ED209012A4D
:1030B000FBD00222197B0A431A731A7ED207FCD571
:1030C000588B80B25A7ED209012AFBD002211A788D
:1030D0008A431A705A7ED209012AFBD0064B1A681D
:1030E000064B1968FFF762FF10BDC046204B000079
:1030F00000480042004000420C0000200800002070
:10310000182330B51D00040045430820204A5519F6
:103110002856013014D0032912D808006343D15631
:10312000D31801F03FFB02280E1B5868CB01022187
:10313000184A9B181A1840321170012282405A60B6
:1031400030BD5868CB010621124A9B181A1840322C
:103150001170012282405A609A61F1E75868CB01F0
:1031600006210C4A9B181A18403211700122824025
:103170005A605A61E4E75868CB010221054A9B185E
:103180001A1840321170012282409A60D8E7C04676
:10319000204B0000004400411823F0B50824584398
:1031A000114A13181C5701341BD0012635005F68E3
:1031B0008356BD400D4ADB019A18906805420BD139
:1031C0000C00601E8441D21940321078344003361E
:1031D000A400B04320431070044A9B18002901D179
:1031E0005D61F0BD9D61FCE7204B000000440041A3
:1031F00018224243F8B52C4E0300B218127A52B28C
:10320000140001320ED0481C00240C280AD801F00A
:10321000C9FA0720202020202020200B0B0B0B00B8
:10322000012464422000F8BD092905D10021D8B24B
:10323000FFF766FF0024F5E70A2902D1D8B2083962
:10324000F6E700240B29EDD1D8B20A39FFF758FF71
:10325000E8E718204343F2185568F3562C00134A48
:10326000DB016E0817389B18C9B204409E19002C68
:103270000DD00F2430363278090122401143C9B2F3
:103280005B19317040331A7810431870D2E732005E
:103290000F27303216785B19BE433143117040332B
:1032A0001A7810431870BDE7204B0000004400411D
:1032B00010B50400FFF722FD014B1C6010BDC04695
:1032C000100000200122024B52421A607047C04693
:1032D00010000020164A10B51368591C26D0013B77
:1032E0001360002B22D172B6124B134A043393425F
:1032F00013D9124A01211000147D0C42FCD0202168
:10330000148BFF319B085B0021431183D3610C4B6D
:1033100013800123027D1A42FCD0BFF34F8F094B6B
:10332000094ADA60BFF34F8FC046FDE710BDC046C3
:1033300010000020002000000302000000400041B7
:1033400002A5FFFF00ED00E00400FA05704710B58C
:10335000040001F033F8200010BD0000F0B5822910
:1033600019D1C3B2294D5A01AA189169284C80017C
:103370000C40C0218905214391612649083340183A
:103380007021506128685B011A5C8A431100302269
:103390000A431A54F0BD0029FCD1C026C1B21B4C0F
:1033A0004B01E3189A681A4DB6052A4032439A60D9
:1033B000194A800182185A600A00072724680832D7
:1033C0005201115DB9430F000121394311559F6925
:1033D00010493D4040182E439E6158617020115D98
:1033E0008143080010210143115599680B48A21828
:1033F000084080214903014399609968890B89033A
:103400009960402311790B431371C3E75C0A0020D4
:10341000FFFFFF8FD005002090070020FF3F00F046
:10342000EFF3108303600123436072B6704773B5F6
:10343000836D0400002B1BD10600A8363578684642
:10344000FFF7EEFF019BEDB2013B02D33578EDB201
:10345000FAE768460193FFF76DF9002D01D10020CE
:1034600076BD2300A4331868A0342368C01AF7E798
:103470006846FFF7D5FF22000025019BF432013B8F
:1034800002D31578EDB2FAE768460193FFF752F9D7
:10349000002DE4D02300F0331868EC34E5E7000099
:1034A00010B5436D4468DBB25A01A218916809480F
:1034B00008330840802149030143916091685B0112
:1034C000890B890391602268D318402219790A4335
:1034D0001A7110BDFF3F00F0F7B5436D4268DBB2D3
:1034E000190004000831106849014118C979C90759
:1034F00011D55B01D21893689B049B0C0CD1200062
:10350000FFF7CEFF63681A68636DDBB208335B01B7
:10351000D3187F22DA71F7BDE16D002923D1210094
:10352000A4310B6023000125AC33E5656846536088
:10353000FFF776FF260020002100019BA836013B03
:10354000F430F5315A1C33D0357002785F1ED2B298
:103550000A700A78002A04D120000193FFF7A0FF27
:10356000E8E73B00EEE72100F0310B600023E36564
:103570002300603353606846FFF752FF01252600A1
:1035800020002100019BF436013BA830F5315A1C84
:103590000ED0357002785F1ED2B20A700A78002A07
:1035A00004D120000193FFF77BFFE8E73B00EEE743
:1035B00068460193FFF7BEF8A4E737B56B46DC1DFC
:1035C00000230D00237000F0E3FE210000F06EFEEA
:1035D0002B681818286020783EBD0000007800286D
:1035E00010D00121084B1B681A898A431A810822CE
:1035F000198B0A431A830422198B0A431A83002267
:10360000024B1A607047C0465C0A0020540A002032
:1036100010B50F4A93699B0B9B03936113680222B9
:10362000FF331A729879823A02439A711A7A920792
:10363000FCD57F24074A2140937A0800A343190050
:10364000802301439172917A5B420B43937210BDC8
:103650005C0A00200050004110B50C0000F098FEFC
:10366000210000F056FE002804D1034A93699B0B09
:103670009B03936110BDC0465C0A0020F8B50D00A5
:10368000832A19D1CBB23B4C5A01A21891693A480E
:10369000AD010840C0218905014391613749206887
:1036A0006D187021083355615B011A5C8A43110063
:1036B00040220A431A54F8BD022A55D1304A8B00E1
:1036C0009858002802D003685B699847F82000F0FA
:1036D00071FE0400274E2B4B466003604022002100
:1036E000083001F036F922000023A032A36465659A
:1036F000E3642365A365E3655360D36413721360C9
:1037000013654C3213725372FF222B001340590180
:1037100071188868184F08330740C0208005384367
:103720008860306807265B01195CAD00B1430E006C
:103730000321314319542300616D60681140490130
:10374000411860334B60616D63680A401B68520129
:103750009B180122FF33997A20000A439A72FFF7DF
:103760009FFE074B5C51A6E711002800FFF7F6FD0E
:10377000A1E7C0465C0A0020FFFFFF8FD0050020B4
:10378000A8050020BC4E000070B505000124064BC2
:10379000A200D258002A06D0210028000134FFF7E9
:1037A0006DFF0A2CF3D170BD7C0500200B4BCAB213
:1037B0000B488901C9185301C31859619969083226
:1037C000890B89039961036852019A180223D37106
:1037D0005179823B0B4353717047C046D00500209E
:1037E0005C0A0020084B8A00D05810B5002803D08E
:1037F00003689B68984710BDC9B2044B490159182A
:1038000088688004800CF6E7A80500205C0A002088
:1038100010B50C00FFF7E6FF00280CD0064BE4B211
:103820001B68083464011C19802362795B421343CE
:1038300063710223E37110BD5C0A0020F0B51C0027
:103840002A4B85B01B6807000D000292002B4AD05E
:10385000274B8A00D058002808D0036822005B68F4
:10386000029998470400200005B0F0BD3800FFF72A
:10387000B9FF844204D929003800FFF7B3FF0400E0
:103880000121EBB21B4E03935B010193F218936885
:103890009B0B9B039360019A336802989B18FF333C
:1038A0005A7A0A435A72144BA901C918220001F02E
:1038B00047F8002CD7D029003800FFF793FF0028E5
:1038C000D1D14021039B326808335B01D3181879AA
:1038D000014319710121D971019BD318FF339A7AE1
:1038E0000A439A72BFE701246442BCE7540A0020ED
:1038F000A80500205C0A00209007002013B56B4645
:10390000DC1D22000123FFF799FF012801D1207857
:1039100016BD01204042FBE770B5CBB2124A1348F6
:103920005C0189018918021951609168104D0833B2
:103930000D40802149032943402591609168890BFE
:103940008903916001685A018A1816793543157107
:1039500095796D06FCD55B01C918CB79DB07FCD5E1
:1039600000198068C0B270BD900700205C0A00207A
:10397000FF3F00F070B50D0000211400FFF7CCFFF1
:10398000A04200D9200000230349A34203D0CA5C0F
:10399000EA540133F9E770BD90070020F0B51E002E
:1039A0003A4B85B01B680F000192002B35D0802365
:1039B000DB019E4231D80025354B8A01D318029392
:1039C000002E2CD0334B1B680393FF233B401C007D
:1039D00000930834039B64011C19A379DB0921D0EF
:1039E0002D4B2E49186800F0E7FE2D4B1721584348
:1039F00000F0E2FE2B4BE279920713D4DA5D002A45
:103A000001D10138F7D20122DA55009B5A01214B2E
:103A10009B189A69920B92039A6101256D422800C6
:103A200005B0F0BD00221F4B3400DA553F2E09D9F6
:103A3000009B40245A01174B9B188022996912065B
:103A40000A439A6122000199029800F079FF009BD5
:103A5000A1045A010F4B890C9B18029A2D195A6127
:103A60009A69361B920B92030A439A61009B039A50
:103A700008335B01D3180222DA715979823A0A437A
:103A80005A71019B1B1901939AE7C046540A002002
:103A9000D00500205C0A00200400002040420F00F6
:103AA00070110100C505002070B50D001C000D4B04
:103AB000AE01F61811003000220000F041FFEDB217
:103AC00009496D014D196E61AB69084A2000134028
:103AD000AB61AB69A2049B0B920C9B031343AB61DC
:103AE00070BDC046D00500205C0A0020FF3F00F0FA
:103AF000F7B5104B01901B780F001500002B0CD16F
:103B00000D4B16001C78002C09D00C4E0C48348844
:103B10002018641900F014FF34802800FEBD002E28
:103B2000FBD03A19330000210198FFF7BDFF24189C
:103B3000361AF4E750090020510A0020520A0020EA
:103B400051090020F8B50F0016000024012A26D9DB
:103B5000100000F0E1FE0500380000F0BDFF032377
:103B600002220130400028706B7096420DD93978DE
:103B700000290AD0531CDBB20137A9549E4203D05E
:103B80000232EC54D2B2F0E7320029000548FFF7C8
:103B9000AFFF441EA041C4B2280000F0C7FE2000C1
:103BA000F8BDC046A4050020F0B50024012685B06C
:103BB000184B0F0069461E7005000094FFF7FDFCCE
:103BC000154B01A90B806A3BFF3BCB715A330B723B
:103BD000009B8C7109334B800E4B4E7108711C7029
:103BE0003A00092F0FD00D4F09223E700C4E2800CD
:103BF00000943480FFF77CFF69462800FFF7DDFC66
:103C0000328808493C702800FFF772FF012005B098
:103C1000F0BDC0465009002009020000510A0020F2
:103C2000520A00205109002070B5CE7892B00500EC
:103C30000C00022E0BD18B79C9792C48090219434B
:103C4000FFF7B2FF411E8841C0B212B070BD00F054
:103C50009FFB210000F03EFB002803D0C117081A8B
:103C6000C00FF2E7012E0ED1E279A37912021A43B6
:103C70001F49112A13D8D2B2002A10D02800FFF70A
:103C800037FF0120E1E7032EDFD1A378002B08D115
:103C9000E279A37912021A431649032AEBD90A786A
:103CA000ECE7022B08D1E279A379120212491A43F8
:103CB0002800FFF747FFC8E7012B05D1E279A37978
:103CC00012021A430D49F3E7032BBED14122010032
:103CD00001A800F03EFE00F05BFB01A900F00AFB2A
:103CE000E279A37912021A4301A9E1E7A4050020B1
:103CF000FE4E0000EE4E0000D84E0000F24E0000D6
:103D0000CBB204495B01C9188B699B0B9B038B6188
:103D10007047C0465C0A002037B5050048780C00A3
:103D20000B2810D800F03EFD061B0F2B0F404561FD
:103D3000494C5A5D097801AA002906D10223118055
:103D40002800FFF7B1FE01203EBD00231380284B61
:103D50001B78012B00D1137002230021F0E78A7831
:103D60000023012A03D101AA1380224BF0E7204A45
:103D70001370214A93699B0B9B039361E3E78C7853
:103D8000012C06D100211B4B01AA1C7011702300CD
:103D9000D6E70120002CD7D1154B174A187093692C
:103DA0009B0B9B039361CFE789782800FFF730FCDA
:103DB000C9E72800FFF738FFC6E701230F4ACCE721
:103DC0000B780020DB06BFD12800FFF7DDFCA278CE
:103DD0000A4B0B481A6000F0C3FCCAE70123094AEA
:103DE000BBE78A78074B1A60C3E70020ACE7C04600
:103DF000C4050020CC0500205C0A0020540A0020E5
:103E0000700B0020580A00203A4BF7B51E780500C9
:103E1000002E5FD1384C23689A8B12070DD50822EB
:103E200031009A833000FFF799FA10222368FF339C
:103E3000997A0A439A72314B1E6023689A8B520713
:103E400001D504229A83FF331A7A920603D52022E1
:103E5000597A0A435A721A7AD20623D5694608005B
:103E6000274AC0CAC0C0A268920B9203A260402237
:103E7000587902435A7160230A7828001A422AD1DD
:103E8000FFF74AFF2368FF33002827D08022997963
:103E900052420A439A711A7A520603D54022597A3D
:103EA0000A435A727F2601252368FF331E722F00B2
:103EB000236808377F01DB19DB79002B07D0114B12
:103EC000AA00D05800280DD003681B689847013518
:103ED000082DECD1F7BDFFF7BFFBD3E720210A4A3D
:103EE0009171D8E72900094800F010FC2368DF1918
:103EF000FE71ECE7510A00205C0A0020540A002001
:103F000090070020A8050020FF500041700B002002
:103F100010B50248FFF778FF10BDC046A405002089
:103F200080235B00038000234360073303727047E4
:103F300083000148C01870477C050020836C402B2B
:103F400009D03F22036CC154036C01331340036456
:103F5000836C013383647047F7B505006846FFF74B
:103F60005FFA00264022019B013B02D32E6D961B77
:103F7000FAE768460193FEF7DDFBAB6D6846002B60
:103F80004FD1FFF74DFA2900019BA831013B5A1C84
:103F90000CD00C785A1EE4B2002C05D1684601936F
:103FA000FEF7C8FB2000FEBD1300F0E76846019352
:103FB0000024FEF7BFFB2A002900A0321368A431B9
:103FC000B4420ED0086898420BD92800591CEB184F
:103FD0001160603319780830C9B2FFF7AFFF0134C0
:103FE000E9E709689942DDD1002313600133AB652D
:103FF0006846FFF715FA2F002A000021019BA83719
:10400000013BF532581CC9D0397010785E1E00286B
:1040100005D0117028000193FFF742FAEBE7330057
:10402000F0E7FFF7FDF92900019BF431013B5A1C31
:1040300006D00C785A1EE4B2002CAFD01300F6E77D
:10404000684601930024FEF775FB2A002900EC3234
:104050001368F031B44202D0086898421DD809684C
:1040600099429FD1002368461360AB65FFF7D8F9EA
:104070002F002A000021019BF437013BF532581C28
:1040800000D18BE7397010785E1E002811D01170B6
:1040900028000193FFF704FAEAE72800591CEB18FF
:1040A0001160AC3319780830C9B2FFF747FF01340B
:1040B000CBE73300E3E710B50400FFF74DFF206DB9
:1040C00010BD10B50400FFF747FF236D002B03D090
:1040D000E36CE418207A10BD01204042FBE7F7B5FD
:1040E00017000E000400FFF737FF6846FFF798F946
:1040F0003F2200259446019B013B5A1C19D0BD422A
:1041000015D2226D002A12D00121226D4942002AC7
:104110000AD06046E26CA218117AE26C01320240C9
:10412000E264226D013A226571550135E7E7013BF2
:10413000E3E768460193FEF7FDFA2800FEBD0000A4
:10414000014B024A1A6070475C0A0020005000418F
:104150002023F7B5474A0500D1690F200B43D361EF
:10416000012245490B7813430B70444B1978814366
:10417000197006211C782143197041490C7822439B
:104180000A701A7802401A70602219780A431A706D
:104190003C4B3D4A5A805F78FF09FCD13B48FEF713
:1041A00059FD01233A4C3B4E2268300011780B43F5
:1041B000137080223900520000F0CBFB2268937804
:1041C000DB07FCD456621F26334B1B68590B980C37
:1041D0009B01314030405B0FB14200D105211F28C7
:1041E00000D10238072B00D1043B31408901178DE3
:1041F00001912A4930400F40019939431185118DB1
:104200000700B143080038431085118D1803244B73
:104210007F260B4003430C2013850823D17881436C
:104220000B430321D3702268D3788B4301390B43AE
:10423000D3702268137833401370042322681678F1
:10424000334313702268C1241389A40083431548A3
:10425000138103591B021B0A035180230360137847
:1042600011481943012311702B70002100F0E8F868
:10427000F7BDC04600040040584400413C440041A2
:1042800059440041000C004006400000113F00006E
:104290005C0A0020600A0020246080003FF8FFFFD5
:1042A000FF8FFFFF00E100E0700B002070B50E00F3
:1042B00000254468002C0BD0236831005B68200087
:1042C0009847002802DB2D18E468F3E701256D42CA
:1042D000280070BD70B50D004468002C08D023681C
:1042E00029009B6820009847002802D1E468F4E781
:1042F000200070BD70B50D004468002C07D0236805
:1043000029002000DB689847E4682D18F5E72C7039
:1043100070BD70B50D004468002C08D023682900DA
:104320001B6820009847002802D1E468F4E72000C9
:1043300070BDF8B542788B790D00017A9B180400A6
:1043400000208B4222DC6368834219D1656000261D
:1043500023786A71EA792B719B182370AB79B34289
:1043600013D9AB68B7006078DF19FFF7E1FD3B6850
:10437000013603606378F6B201336370EEE70B0039
:10438000D9680029FBD1DD60E1E70120F8BD00001C
:1043900070B50126054D064C2B68334203D1200031
:1043A000FFF7BEFD2E60200070BDC046600B0020F0
:1043B000640B002010B500F0AFFA10BD10B500F08E
:1043C000B5FA10BD0020704770B50F26CB1D01391E
:1043D00002003240D5B22C0000093034092A00DD39
:1043E00007341C70013B8B42F2D170BD10B50C003C
:1043F0000B4B1868FFF7E8FF21000A4B08311868DB
:10440000FFF7E2FF2100084B10311868FFF7DCFFCF
:104410002100064B18311868FFF7D6FF202010BD89
:104420000CA0800040A0800044A0800048A0800034
:1044300008B4024B9C46103808BC6047ED430000AE
:10444000704770473F20704713B56B460268D971BB
:104450000733546819000122A04716BD70B50A261B
:104460000B7892B06E44023305000B703C220021A1
:10447000300000F06EFA394801AC0690384824212B
:104480000790062020776846364AA1742281364A72
:10449000364BA281FD3AFF3A8018C177684623392E
:1044A0000630C17768460730C17702A8C177072078
:1044B000F277032608316944C87703A9CE77102123
:1044C0002B366E443170092621851F3169440E70E8
:1044D0000CA9053E0E7033212380022369440B7022
:1044E00006360DA90E7022493536A1863B216E4451
:1044F000307010A86274E27702703D3269446A44F9
:104500000B70137040210022E37023716371A37359
:1045100041336B44218719705A702B7DC039A370C9
:10452000A37263770133DBB2A3776A7D0B200D00A2
:1045300068441543C5773120684403703A23501C02
:104540006B441870412302320A436B441A702100F5
:1045500042220848FFF7CCFA12B070BD10010424C3
:10456000020605240904000001020000080B0000F7
:1045700007050000A405002008B4024B9C46103833
:1045800008BC60475D44000070B5027D0B790C00EB
:1045900000259A420BD10B784E78A12B09D1212E00
:1045A00005D107221B491C48FFF7A2FA0135280054
:1045B00070BD212BFBD1202E22D107221549164890
:1045C000FFF7D8F99622134BD200196891421DD1FA
:1045D000DB79DB071AD4FA20FEF76AFE00210E48C9
:1045E000FFF78EFB0125232EE1D1E378A2781B0291
:1045F00013430A4A002108481360FFF781FBD6E7FE
:10460000222EEFD18A78034BDA71DBE7FEF75AFEF0
:10461000E4E7C04618000020A40500201400002094
:1046200008B4024B9C46103808BC6047894500001E
:1046300010B508220021024800F08BF910BDC046D9
:104640001800002010B5417D006A0131FFF7CAF85B
:10465000034B1B6801335A1E9341181810BDC04606
:104660002000002010B5417D006A0231FFF7D0F82C
:1046700010BD10B5417D006A0231FFF797F810BDFB
:1046800070B50D00417D0400130002312A00006A5C
:10469000FFF784F9002801D10123636070BD000099
:1046A00010B5054C23685A1C04D103685B69984710
:1046B00003002060180010BD20000020074A0300FE
:1046C000106810B5411C03D001235B42136010BD7C
:1046D000597D186A0131FFF711F9F8E72000002031
:1046E00010B5FEF7BDFAF423FF330024984207D932
:1046F000044B0A20DC79631E9C41E4B2FEF7E6FA23
:10470000200010BD180000200020704770470000F6
:10471000FA239B0010B583600F4B0022C382030075
:10472000283383610D4B04004260C261180050338E
:1047300023610830631D21622060DA778323A3623E
:10474000813BE36280332363FFF722FE21001031B7
:10475000FFF7EFFD200010BD03020000104F000026
:10476000022110B5094B1A68437D5B01D318FF3352
:104770009C7A21439972437D0133DBB25B01D318EC
:104780000122FF33997A0A439A7210BD5C0A002015
:1047900010B502490248FFF7BBFF10BDA405002079
:1047A000700B002002B4714649084900095C4900B9
:1047B0008E4402BC7047C046002243088B4274D32B
:1047C00003098B425FD3030A8B4244D3030B8B4212
:1047D00028D3030C8B420DD3FF22090212BA030C1B
:1047E0008B4202D31212090265D0030B8B4219D3FC
:1047F00000E0090AC30B8B4201D3CB03C01A52411C
:10480000830B8B4201D38B03C01A5241430B8B4263
:1048100001D34B03C01A5241030B8B4201D30B034C
:10482000C01A5241C30A8B4201D3CB02C01A524173
:10483000830A8B4201D38B02C01A5241430A8B4236
:1048400001D34B02C01A5241030A8B4201D30B021F
:10485000C01A5241CDD2C3098B4201D3CB01C01A39
:10486000524183098B4201D38B01C01A5241430943
:104870008B4201D34B01C01A524103098B4201D331
:104880000B01C01A5241C3088B4201D3CB00C01A9E
:10489000524183088B4201D38B00C01A5241430816
:1048A0008B4201D34B00C01A5241411A00D201463B
:1048B000524110467047FFE701B5002000F006F8AE
:1048C00002BDC0460029F7D076E770477047C04662
:1048D00070B500260C4D0D4C641BA410A64209D1E6
:1048E000002600F011F90A4D0A4C641BA410A642E0
:1048F00005D170BDB300EB5898470136EEE7B30021
:10490000EB5898470136F2E7880000208800002025
:10491000880000209800002010B5034B01001868A3
:1049200000F06AF810BDC0462400002010B5034B0B
:104930000100186800F016F810BDC04624000020E1
:10494000002310B59A4200D110BDCC5CC454013391
:10495000F8E703001218934200D170471970013331
:10496000F9E7000070B50500002910D00C1F23687E
:10497000002B00DAE418280000F0B5F81D4A13688F
:10498000002B05D163601460280000F0ADF870BD05
:10499000A34209D9216860188342F3D118685B6883
:1049A00041182160EEE713005A68002A01D0A242A4
:1049B000F9D919685818A0420BD12068091858185D
:1049C00019608242E0D110685268411819605A603B
:1049D000DAE7A04202D90C232B60D5E721686018E2
:1049E000824203D1106852684118216062605C60A5
:1049F000CAE7C046A40B0020032370B5CD1C9D431D
:104A0000083506000C2D1ED20C25A9421DD83000F9
:104A100000F069F8254A14682100002919D1244CB6
:104A20002368002B03D1300000F044F820602900F7
:104A3000300000F03FF8431C2BD10C2330003360D2
:104A400000F052F803E0002DDFDA0C233360002081
:104A500070BD0B685B1B19D40B2B03D90B60CC18F2
:104A6000256003E04B688C420DD11360300000F0EC
:104A70003BF8200007220B30231D9043C31AE7D0D8
:104A80005A42E250E4E763600C00EFE70C0049682B
:104A9000C3E70323C41C9C43A042E1D0211A300089
:104AA00000F008F8431CDBD1C7E7C046A40B002088
:104AB000A80B0020002370B5064C050008002360F9
:104AC00000F014F8431C03D12368002B00D02B60A6
:104AD00070BDC046B00B00200023C25C0133002A29
:104AE000FBD1581E7047704770470000044A136896
:104AF000002B00D1034B1818106018007047C046F7
:104B0000AC0B0020B40B0020F8B5C046F8BC08BCC4
:104B10009E467047F8B5C046F8BC08BC9E46704734
:104B20000000000016000000080000001C0000004B
:104B3000FF00000400040600000000001700000051
:104B4000080000001C000000FF0001040104070031
:104B5000000000000A000000080000001C00000027
:104B6000120000010001FF00000000000B00000027
:104B7000080000001C000000130001010101FF00FB
:104B8000010000000A000000080000001C000000F6
:104B9000FF00000500050A00010000000B000000F6
:104BA000080000001C000000FF00010501050B00CB
:104BB0000000000014000000080000002C000000AD
:104BC000FF000200020004000000000015000000C9
:104BD000080000002C000000FF0003000300050097
:104BE0000000000010000000020000001C00000097
:104BF000FF000002000200000000000011000000A1
:104C00000200000004000000FF00FFFFFFFF0100A2
:104C10000000000013000000020000001C00000063
:104C2000FF0001030103FF00000000000800000076
:104C300003000000040000001000FFFFFFFF100051
:104C40000000000009000000030000000400000054
:104C50001100FFFFFFFFFF00010000001700000030
:104C60000300000004000000FF00FFFFFFFFFF0043
:104C70000100000016000000030000000400000016
:104C8000FF00FFFFFFFFFF00000000000200000028
:104C900001000000060000000000FFFFFFFFFF0012
:104CA00001000000020000000100000004000000FC
:104CB0000A00FFFFFFFF02000100000003000000E8
:104CC00001000000040000000B00FFFFFFFF0300D5
:104CD0000000000004000000010000001C000000B3
:104CE000040000000000FF000000000005000000BC
:104CF000010000001C000000050001000100FF0091
:104D00000000000006000000010000000400000098
:104D10000600FFFFFFFFFF0000000000070000008B
:104D200001000000040000000700FFFFFFFFFF007C
:104D30000000000018000000060000000000000055
:104D4000FF00FFFFFFFFFF00000000001900000050
:104D50000600000000000000FF00FFFFFFFFFF0053
:104D60000000000012000000080000000400000025
:104D7000FF00FFFFFFFFFF00000000000300000036
:104D80000800000004000000FF00FFFFFFFFFF001D
:104D9000000000000C000000030000000000000004
:104DA000FF00FFFFFFFFFF00000000000D000000FC
:104DB0000300000000000000FF00FFFFFFFFFF00F6
:104DC000000000000E0000000800000000000000CD
:104DD000FF00FFFFFFFFFF00000000000F000000CA
:104DE0000300000000000000FF00FFFFFFFFFF00C6
:104DF000000000001B000000080000000000000090
:104E0000FF00FFFFFFFF0F0001000000080000008F
:104E100008000000060000000200FFFFFFFFFF0087
:104E2000010000000900000001000000180000005F
:104E3000030001040104090000000000000000005C
:104E40000800000000000000FF00FFFFFFFFFF0060
:104E50000000000001000000080000000000000049
:104E6000FF00FFFFFFFFFF00000000001C0000002C
:104E70000800000004000000FF00FFFFFFFFFF002C
:104E80000000000000000000E12A0000B12B00003B
:104E9000D32600001F270000CD2600007D2B000038
:104EA000E3260000BD2600008D270000FB26000041
:104EB000B92600000000000000000000D934000006
:104EC000DF400000B7400000C34000004D33000049
:104ED0004F3300002F34000041726475696E6F20FB
:104EE0004D4B522057694669203130313000040360
:104EF000090441726475696E6F204C4C43001201C5
:104F00000002EF020140412354800001010203012D
:104F1000000000000000000049440000814600003D
:104F2000454400006546000045460000BD460000BF
:104F3000A146000041440000434400003146000007
:104F4000E1460000734600005D440000C5430000D8
:104F500089450000ED430000F0FFFFFF0000000066
:104F60002146000079450000094700003144000057
:104F7000000000000D00000040420F000A00000089
:104F80000A000000FFFFFFFFFFFFFFFF00C201005C
:104F900000000800FFFFFFFF2800002000000000C5
:104FA0000000000000000000000000000000000001
:104FB00000000000000000000000000000000000F1
:104FC00000000000000000000000000000000000E1
:104FD00000000000000000000000000000000000D1
:104FE00000000000000000000000000000000000C1
:104FF000000000000000000000000000DD200000B4
:10500000592200004141000091470000B5200000F6
:04501000000000009C
:00000001FF
